{
  "_format": "hh-sol-artifact-1",
  "contractName": "VotingSystem",
  "sourceName": "contracts/VotingSystem.sol",
  "abi": [
    {
      "inputs": [
        {
          "internalType": "string[]",
          "name": "proposalNames",
          "type": "string[]"
        }
      ],
      "stateMutability": "nonpayable",
      "type": "constructor"
    },
    {
      "inputs": [],
      "name": "admin",
      "outputs": [
        {
          "internalType": "address",
          "name": "",
          "type": "address"
        }
      ],
      "stateMutability": "view",
      "type": "function"
    },
    {
      "inputs": [],
      "name": "endVoting",
      "outputs": [],
      "stateMutability": "nonpayable",
      "type": "function"
    },
    {
      "inputs": [
        {
          "internalType": "uint256",
          "name": "index",
          "type": "uint256"
        }
      ],
      "name": "getProposal",
      "outputs": [
        {
          "internalType": "string",
          "name": "description",
          "type": "string"
        },
        {
          "internalType": "uint256",
          "name": "voteCount",
          "type": "uint256"
        }
      ],
      "stateMutability": "view",
      "type": "function"
    },
    {
      "inputs": [],
      "name": "getWinningProposal",
      "outputs": [
        {
          "internalType": "uint256",
          "name": "winningProposal",
          "type": "uint256"
        }
      ],
      "stateMutability": "view",
      "type": "function"
    },
    {
      "inputs": [
        {
          "internalType": "address",
          "name": "",
          "type": "address"
        }
      ],
      "name": "hasVoted",
      "outputs": [
        {
          "internalType": "bool",
          "name": "",
          "type": "bool"
        }
      ],
      "stateMutability": "view",
      "type": "function"
    },
    {
      "inputs": [
        {
          "internalType": "uint256",
          "name": "",
          "type": "uint256"
        }
      ],
      "name": "proposals",
      "outputs": [
        {
          "internalType": "string",
          "name": "description",
          "type": "string"
        },
        {
          "internalType": "uint256",
          "name": "voteCount",
          "type": "uint256"
        }
      ],
      "stateMutability": "view",
      "type": "function"
    },
    {
      "inputs": [
        {
          "internalType": "uint256",
          "name": "proposalIndex",
          "type": "uint256"
        }
      ],
      "name": "vote",
      "outputs": [],
      "stateMutability": "nonpayable",
      "type": "function"
    },
    {
      "inputs": [],
      "name": "votingEnded",
      "outputs": [
        {
          "internalType": "bool",
          "name": "",
          "type": "bool"
        }
      ],
      "stateMutability": "view",
      "type": "function"
    }
  ],
  "bytecode": "0x60806040523480156200001157600080fd5b50604051620012c3380380620012c38339818101604052810190620000379190620003ab565b336000806101000a81548173ffffffffffffffffffffffffffffffffffffffff021916908373ffffffffffffffffffffffffffffffffffffffff16021790555060005b8151811015620001145760026040518060400160405280848481518110620000a757620000a6620003fc565b5b60200260200101518152602001600081525090806001815401808255809150506001900390600052602060002090600202016000909190919091506000820151816000019081620000f9919062000676565b5060208201518160010155505080806001019150506200007a565b50506200075d565b6000604051905090565b600080fd5b600080fd5b600080fd5b6000601f19601f8301169050919050565b7f4e487b7100000000000000000000000000000000000000000000000000000000600052604160045260246000fd5b620001808262000135565b810181811067ffffffffffffffff82111715620001a257620001a162000146565b5b80604052505050565b6000620001b76200011c565b9050620001c5828262000175565b919050565b600067ffffffffffffffff821115620001e857620001e762000146565b5b602082029050602081019050919050565b600080fd5b600080fd5b600067ffffffffffffffff82111562000221576200022062000146565b5b6200022c8262000135565b9050602081019050919050565b60005b83811015620002595780820151818401526020810190506200023c565b60008484015250505050565b60006200027c620002768462000203565b620001ab565b9050828152602081018484840111156200029b576200029a620001fe565b5b620002a884828562000239565b509392505050565b600082601f830112620002c857620002c762000130565b5b8151620002da84826020860162000265565b91505092915050565b6000620002fa620002f484620001ca565b620001ab565b9050808382526020820190506020840283018581111562000320576200031f620001f9565b5b835b818110156200036e57805167ffffffffffffffff81111562000349576200034862000130565b5b808601620003588982620002b0565b8552602085019450505060208101905062000322565b5050509392505050565b600082601f83011262000390576200038f62000130565b5b8151620003a2848260208601620002e3565b91505092915050565b600060208284031215620003c457620003c362000126565b5b600082015167ffffffffffffffff811115620003e557620003e46200012b565b5b620003f38482850162000378565b91505092915050565b7f4e487b7100000000000000000000000000000000000000000000000000000000600052603260045260246000fd5b600081519050919050565b7f4e487b7100000000000000000000000000000000000000000000000000000000600052602260045260246000fd5b600060028204905060018216806200047e57607f821691505b60208210810362000494576200049362000436565b5b50919050565b60008190508160005260206000209050919050565b60006020601f8301049050919050565b600082821b905092915050565b600060088302620004fe7fffffffffffffffffffffffffffffffffffffffffffffffffffffffffffffffff82620004bf565b6200050a8683620004bf565b95508019841693508086168417925050509392505050565b6000819050919050565b6000819050919050565b600062000557620005516200054b8462000522565b6200052c565b62000522565b9050919050565b6000819050919050565b620005738362000536565b6200058b62000582826200055e565b848454620004cc565b825550505050565b600090565b620005a262000593565b620005af81848462000568565b505050565b5b81811015620005d757620005cb60008262000598565b600181019050620005b5565b5050565b601f8211156200062657620005f0816200049a565b620005fb84620004af565b810160208510156200060b578190505b620006236200061a85620004af565b830182620005b4565b50505b505050565b600082821c905092915050565b60006200064b600019846008026200062b565b1980831691505092915050565b600062000666838362000638565b9150826002028217905092915050565b62000681826200042b565b67ffffffffffffffff8111156200069d576200069c62000146565b5b620006a9825462000465565b620006b6828285620005db565b600060209050601f831160018114620006ee5760008415620006d9578287015190505b620006e5858262000658565b86555062000755565b601f198416620006fe866200049a565b60005b82811015620007285784890151825560018201915060208501945060208101905062000701565b8683101562000748578489015162000744601f89168262000638565b8355505b6001600288020188555050505b505050505050565b610b56806200076d6000396000f3fe608060405234801561001057600080fd5b50600436106100885760003560e01c8063a51346201161005b578063a513462014610128578063c3403ddf14610146578063c7f758a814610150578063f851a4401461018157610088565b80630121b93f1461008d578063013cf08b146100a957806309eef43e146100da5780639d5a05291461010a575b600080fd5b6100a760048036038101906100a291906106c2565b61019f565b005b6100c360048036038101906100be91906106c2565b610313565b6040516100d192919061078e565b60405180910390f35b6100f460048036038101906100ef919061081c565b6103cf565b6040516101019190610864565b60405180910390f35b6101126103ef565b60405161011f9190610864565b60405180910390f35b610130610402565b60405161013d919061087f565b60405180910390f35b61014e610484565b005b61016a600480360381019061016591906106c2565b61057f565b60405161017892919061078e565b60405180910390f35b610189610663565b60405161019691906108a9565b60405180910390f35b600360009054906101000a900460ff16156101ef576040517f08c379a00000000000000000000000000000000000000000000000000000000081526004016101e690610910565b60405180910390fd5b600160003373ffffffffffffffffffffffffffffffffffffffff1673ffffffffffffffffffffffffffffffffffffffff16815260200190815260200160002060009054906101000a900460ff161561027c576040517f08c379a00000000000000000000000000000000000000000000000000000000081526004016102739061097c565b60405180910390fd5b6001600282815481106102925761029161099c565b5b906000526020600020906002020160010160008282546102b291906109fa565b9250508190555060018060003373ffffffffffffffffffffffffffffffffffffffff1673ffffffffffffffffffffffffffffffffffffffff16815260200190815260200160002060006101000a81548160ff02191690831515021790555050565b6002818154811061032357600080fd5b906000526020600020906002020160009150905080600001805461034690610a5d565b80601f016020809104026020016040519081016040528092919081815260200182805461037290610a5d565b80156103bf5780601f10610394576101008083540402835291602001916103bf565b820191906000526020600020905b8154815290600101906020018083116103a257829003601f168201915b5050505050908060010154905082565b60016020528060005260406000206000915054906101000a900460ff1681565b600360009054906101000a900460ff1681565b6000806000905060005b60028054905081101561047f57816002828154811061042e5761042d61099c565b5b9060005260206000209060020201600101541115610472576002818154811061045a5761045961099c565b5b90600052602060002090600202016001015491508092505b808060010191505061040c565b505090565b60008054906101000a900473ffffffffffffffffffffffffffffffffffffffff1673ffffffffffffffffffffffffffffffffffffffff163373ffffffffffffffffffffffffffffffffffffffff1614610512576040517f08c379a000000000000000000000000000000000000000000000000000000000815260040161050990610b00565b60405180910390fd5b600360009054906101000a900460ff1615610562576040517f08c379a000000000000000000000000000000000000000000000000000000000815260040161055990610910565b60405180910390fd5b6001600360006101000a81548160ff021916908315150217905550565b6060600080600284815481106105985761059761099c565b5b90600052602060002090600202016040518060400160405290816000820180546105c190610a5d565b80601f01602080910402602001604051908101604052809291908181526020018280546105ed90610a5d565b801561063a5780601f1061060f5761010080835404028352916020019161063a565b820191906000526020600020905b81548152906001019060200180831161061d57829003601f168201915b505050505081526020016001820154815250509050806000015181602001519250925050915091565b60008054906101000a900473ffffffffffffffffffffffffffffffffffffffff1681565b600080fd5b6000819050919050565b61069f8161068c565b81146106aa57600080fd5b50565b6000813590506106bc81610696565b92915050565b6000602082840312156106d8576106d7610687565b5b60006106e6848285016106ad565b91505092915050565b600081519050919050565b600082825260208201905092915050565b60005b8381101561072957808201518184015260208101905061070e565b60008484015250505050565b6000601f19601f8301169050919050565b6000610751826106ef565b61075b81856106fa565b935061076b81856020860161070b565b61077481610735565b840191505092915050565b6107888161068c565b82525050565b600060408201905081810360008301526107a88185610746565b90506107b7602083018461077f565b9392505050565b600073ffffffffffffffffffffffffffffffffffffffff82169050919050565b60006107e9826107be565b9050919050565b6107f9816107de565b811461080457600080fd5b50565b600081359050610816816107f0565b92915050565b60006020828403121561083257610831610687565b5b600061084084828501610807565b91505092915050565b60008115159050919050565b61085e81610849565b82525050565b60006020820190506108796000830184610855565b92915050565b6000602082019050610894600083018461077f565b92915050565b6108a3816107de565b82525050565b60006020820190506108be600083018461089a565b92915050565b7f566f74696e672068617320656e64656400000000000000000000000000000000600082015250565b60006108fa6010836106fa565b9150610905826108c4565b602082019050919050565b60006020820190508181036000830152610929816108ed565b9050919050565b7f596f75206861766520616c726561647920766f74656400000000000000000000600082015250565b60006109666016836106fa565b915061097182610930565b602082019050919050565b6000602082019050818103600083015261099581610959565b9050919050565b7f4e487b7100000000000000000000000000000000000000000000000000000000600052603260045260246000fd5b7f4e487b7100000000000000000000000000000000000000000000000000000000600052601160045260246000fd5b6000610a058261068c565b9150610a108361068c565b9250828201905080821115610a2857610a276109cb565b5b92915050565b7f4e487b7100000000000000000000000000000000000000000000000000000000600052602260045260246000fd5b60006002820490506001821680610a7557607f821691505b602082108103610a8857610a87610a2e565b5b50919050565b7f4f6e6c792061646d696e2063616e2063616c6c20746869732066756e6374696f60008201527f6e00000000000000000000000000000000000000000000000000000000000000602082015250565b6000610aea6021836106fa565b9150610af582610a8e565b604082019050919050565b60006020820190508181036000830152610b1981610add565b905091905056fea2646970667358221220f1e4739f04fb921a2d663c23b06a4a84e38ab5e09d12d788d48551b2fe9edd2c64736f6c63430008180033",
  "linkReferences": {},
  "deployedLinkReferences": {}
}